:020000040000FA
:10000000021305022003FFFFFFFFFF02200BFFFF8B
:10001000FFFFFF020E67FFFFFFFFFF02201BFFFF36
:10002000FFFFFF022023FFFFFFFFFF02202BFFFF48
:10003000FFFFFF022033FFFFFFFFFF020EAAFFFFBB
:10004000FFFFFF022043FFFFFFFFFF02204BFFFFE8
:10005000FFFFFF022053FFFFFFFFFF02205BFFFFB8
:10006000FFFFFF022063FFFFFFFFFF02206BFFFF88
:10007000FFFFFF022073FFFFFFFFFF02207BFFFF58
:10008000FFFFFF022083FFFFFFFFFF02208BFFFF28
:10009000FFFF70DFFFFF040000000002000000C847
:1000A0000300030369A5020269A501000000000026
:1000B00004003273000074F812104C900393E06057
:1000C0001590030274FEF0900304744DF0A37405C0
:1000D000F07A0112068C7F0102116974F712104C3C
:1000E00074FF1212717E00801F851882851983E0CB
:1000F00064FE70069003877401F085188285198369
:10010000E0F8900384E068F07C017D00AA18AB1948
:10011000120E228B09EA450970030201F385188249
:10012000851983E064EF70027E07E0C0E0900387EA
:10013000E0FA900385E0F8EA28F8E43400F9740264
:1001400028F582740339F583D0E0F0900387E060EE
:100150009814600E14602C14603C14605214606893
:100160008098900384E4F0851882851983E09003D9
:1001700086F0C394809003874004E40200F974027F
:100180000200F9851882851983E0900382F09003BC
:100190008774030200F9851882851983E090038330
:1001A000F0900386E0601990038774040200F990D0
:1001B0000385E004F0F8900386E06860030200FA2B
:1001C00090038774050200F9900385E4F09003879B
:1001D000F0900384E0F8851882851983E068600355
:1001E0000200FA900382E0644D60030200FA1203F9
:1001F000288002EEF9740112123D7F020211697427
:10020000F712104C74FB121271EAFEEBFF75080432
:1002100075090078081212D574021212EE7A907BDA
:10022000007904120ECB740212123D12067E1213D4
:100230003FE0687003A3E069701285188285198316
:10024000E0F47003A3E0F4600302030874041212E4
:10025000E61206E48A088B09A808A9097402121399
:100260003FE8F0A3E9F0740412133FE0600879015D
:100270001200B6020321851882851983E068700395
:10028000A3E0697076851882851983E0F47003A372
:10029000E0F47019740212133F7410F0A37420F08C
:1002A0008518828519837410F0A37420F0750801F5
:1002B00075090078081212D574021212EE7A247BA6
:1002C00008120F4F740212123D75080478081212BA
:1002D000D574021212EE7A907B007904120ECB7460
:1002E0000212123D12067E12133FE0687003A3E073
:1002F000697004790280067904800279031200B6DD
:100300008E828F83741E80058E828F83E4F01206A6
:100310007E12133FE0687003A3E0697004790180E6
:1003200002790074050201F774E912104C74F81296
:100330001271900307E0FA900306E0F9FEEAFCE48C
:10034000CCFDEE2CED3408FF751001750F00750E15
:10035000068E088F097402780812129CC39508FC57
:10036000E49509FD74022CF51474033DF515E514AC
:100370002497F516E5153420F517EE2410F508E45A
:100380003FF509EEF50CEF5401F50D8E128F137445
:100390000978121212F685120A900383E01460574E
:1003A00014700302046F1470030204E61460102436
:1003B000FE70030205A11470030206510206617566
:1003C0000E03794E120C619003071206747402F04A
:1003D000A374401206727408120672F0A3F0741827
:1003E000C3940704F510AA10A90F12068CA90E7465
:1003F0000812123D02083E750E04794E120C61EE91
:10040000450D7005A90A120FB5C3EE9425EF9408A7
:10041000503FC3E5089424E50994084034E51424CA
:1004200096F8E5153420F988828983E0701E8516D8
:1004300082851783E070159003887401F0888289A3
:100440008374A5F08516828517838004900388E461
:10045000F075081075090078081212D57C087D0324
:10046000EEFAEFFB120F4F740212123D0203E67513
:100470000E05C3E50A947995E04006750F01020365
:10048000E675104075110078101212D57C097D03B5
:100490007402780C12129CAA0CAB0DA90A120ECB96
:1004A000740212123D900307E0A3F0900306E0A34C
:1004B000F0751043C3EE9425EF940840030203E661
:1004C000C3E5089424E509940850030203E6900369
:1004D00088E070030203E6A816A91788828983E4DE
:1004E000F0A3F00203E675080475090078081212FB
:1004F000D574021212EE7A907B007904120ECB743E
:100500000212123D740212133FE0F8A3E0F98518BD
:1005100082851983E0687003A3E0698518828519D4
:1005200083700BE0F47003A3E0F470578009E0F4EB
:100530007003A3E0F4700D8518828519837410F0A0
:10054000A37420F012067E12133FE8F0A3E9F075C1
:10055000080178081212D574021212EE7A247B0870
:10056000120F4F740212123D75080478081212D54A
:1005700074021212EE7A907B007904120ECB740290
:1005800012123D12067E12133FE0687003A3E06969
:100590007006750E010203E6750E02750F07020361
:1005A000E6900391E06007640260030203E6EAFF5D
:1005B0007A01790012068CE060030206458003127E
:1005C0000D22120D2CE970F7740412133F12066607
:1005D000740412133F780812132385080C85090D43
:1005E000850A0E850B0F9005A2780C1212C27404B6
:1005F00012133F780C121314E5084509450A450B00
:1006000070CE8EC2E5C554E04FF5C5740412133F99
:10061000120666740412133F780812132385080C1F
:1006200085090D850A0E850B0F9005A2780C121214
:10063000C2740412133F780C121314E508450945DF
:100640000A450B70CE7A01790012068C79080203F4
:10065000EFE9900393F070030203E6750E090203BD
:10066000E679060203EFE4F0A37426F0A3E4F0A316
:10067000F022F0A3E4F0A3F0A3F0A3F0A3228518E6
:1006800082851983E0F8A3E0F974022274F812104D
:100690004CEAFE900305E0D2E7F0E9A3F0EE900308
:1006A00003F08E0874042AFE7C028004E062080CC9
:1006B000ECFA3395E0FB74022AF58274033BF58370
:1006C000EEF8C3EA98EB9400A2D265D03340DDE5A2
:1006D00008F074012A0C3395E0FD7A027B03120EB8
:1006E000520200D674E912104C7582007583FE1216
:1006F00012048A168B177514007515008A828B8375
:10070000E4F0900391E07006D2AAD2AF80046402B4
:10071000700579001200B6750C00750D20750E007D
:10072000750F00900391E0600464027015120D22B1
:100730001200DBE9F87409686003020814790012FA
:1007400000B675080075090278081212D5740212F5
:1007500012EE850C08850D09AA08E5095407FB85EA
:100760000E0A850F0B740B7808121258A908120E86
:10077000CB740212123D7E007F009005AAC0828ECB
:1007800010EFF5113395E0F512F513850C08850D82
:1007900009850E0A850F0B780879101212AF9005A3
:1007A000A678081212C2758305D08278081211E566
:1007B000501D851882851983E5822EF582E5833FD9
:1007C000F583E0F9AA14AB151208438A148B150EB1
:1007D000EE70010FC3EF940240A09005AE780C12AA
:1007E00012C29005B2780C1211E54003020723797A
:1007F00000AA14AB1512084379001208438B159018
:100800000391E07004C2AFC2AAEA451570277AA529
:100810007BA58021E870030207427406687003021A
:1008200007427407687003020742851682851783A2
:100830007401F080BA7582007583021212047F1071
:10084000021169C008C0097C088A088B09740F78F6
:10085000081212F6E508F8EA25E0FAEB33FBE9A204
:10086000E7500474014AFAE8A2E0500874216AFAD9
:1008700074106BFBE9C333F91CEC70CDD009D008C0
:100880002274F812104C78007900802274942EF5AE
:1008900082E43403F583E08A828B83F0900414129F
:1008A0000A014005900414E4F008E870010990047E
:1008B00014E0FEA3E06E6007C3E89CE99D40CDE82C
:1008C000FAE9FB7F0102116974F712104C90049849
:1008D000E0F509A3E0F508F8E509C398F895E0F913
:1008E000E508C39509E8500B120AE3701178007906
:1008F00000801B247F500109C39CE99D50EF7A00C2
:100900007B008041E004F0D2E908E8700109C3E807
:100910009CE99D502C8A828B83E0C0E0900499E092
:10092000FE74182EF582E43404F583D0E0120AD365
:1009300090049AE4F0900499E0C3947F40C6E48068
:10094000C5E8FAE9FB7F02021169C082C083C2E9EF
:10095000900498E0F8A3E0686017741828F582E422
:100960003404F583E0F5C1900498120AFA4002E4D9
:10097000F0020D4074F812104C7800790090051DBB
:10098000E07055A3E0705175F900C28FC284A28354
:1009900040FCA28F4004A28350F8AEF9C28FA2831C
:1009A0005004D2848032EEC0E0E0FE1209F6D0E0BE
:1009B000F090051E120AFA40D9E4F080D51209F62B
:1009C000E08A828B83F090051D120A014005900594
:1009D0001DE4F008E870010990051DE0FEA3E06E3B
:1009E0006007C3E89CE99D40D4E8497006E4F090B4
:1009F000051DF00208BF749D2EF582E43404F583D2
:100A000022E004120AD7C394802274F812104C908A
:100A100005A0E0FEF890059FE0FFEEC39FE0500DBB
:100A2000C398F895E0F9120AE270188012C398F89A
:100A300095E0F9E8247F500109C39CE99D4004EC4E
:100A40004D70077A007B00020AD08A828B83E0F522
:100A5000F9A3AA82AB83780179008008E004F0084A
:100A6000E8700109C3E89CE99D50278A828B83E0E6
:100A7000C0E09005A0E0FE741F2EF582E43405F579
:100A800083D0E0120AD39005A0E0C3947F40CDE468
:100A900080CCC28FA28340FCC284A28F4004A28378
:100AA00050F890059F120AEDE0F5F9C28F90059F6E
:100AB000E0FAA3E06A90059F7005120AED80051226
:100AC0000AFA4002E4F0A28350D0D284E8FAE9FBAB
:100AD0000208C3120AD722F08A828B83A3AA82ABB0
:100AE0008322E824FF18E934FFF9E84922E0FA7488
:100AF0001F2AF582E43405F58322E004F0C39480D4
:100B00002274FB121271C2009005CA7808121323D6
:100B10009005CA7401F0A3F0A37469F0A374A5F062
:100B20009005B678081212877004D20080159005DF
:100B3000BA78081212876008E59D54186410700393
:100B4000022000120C87A2005003020C04AA18AB6A
:100B5000191201FFE97003020C04851882851983BC
:100B6000E0C3943C500CE0F8743CC398FA95E0FB69
:100B700080047A007B00120D45E97003020C04909A
:100B80000391E06401700C75F800C2AB539AF7D280
:100B9000EA805E79071200B68003120D22120D2C36
:100BA000E970F7740112133FE4F0A37426F0A3E494
:100BB000F0A3F0740112133F780812132385080C78
:100BC00085090D850A0E850B0F9005A2780C12126F
:100BD000C2740112133F780C121314E5084509453D
:100BE0000A450B70CE758600C2AAC28B539AFBC20F
:100BF000E990000174CDF0022000C2AF75C9AB7559
:100C0000C95B80FE750800750900750A00750B0048
:100C1000900391E0701BD2AAD2AF79051200B6E022
:100C20007003120D221200DBE9F874096870098064
:100C3000E9794E120C6180ED74016870E2E0701782
:100C4000120D229005BE78081212C29005C27808D3
:100C50001211E550EBC2AAC2AF75C9AB75C95B8072
:100C6000FEC082C08378109005A1E0C3995015752D
:100C7000B60FE5B4A2E750FAE5BBC39940F118E816
:100C800070EDE9F0020D40C082C08353BEFBE59DCC
:100C9000A2E650FA0078F8790100120AE270FA75BB
:100CA000C6807480659E70FA43BE049062707408BA
:100CB000F0794A120C6190000174F5F07403F5D5D7
:100CC00075D489A2A0E433900391F0A2E05029D218
:100CD0008453F3F753F3EF53FDF743FD10538FF7AE
:100CE00053F7DF43FC2043F10253F5DF75F820434F
:100CF000F4F0D2FED2AB802853FF3F85FFFF53F1C3
:100D0000FE43F30C53F2F375868075C48090049B08
:100D1000E4F0A3F075C2D875C50B75C402438640D4
:100D2000801E800312094AA2E940F922C082C083D2
:100D3000900498E0F8A3E0686004790180027900EB
:100D4000D083D0822274F112104C74FF1212717E83
:100D500000900391E06401706CC28490039274016E
:100D6000F07508388E098E0A8E0B7C017D00AA185A
:100D7000AB19120E228B0DEA450D6018851882857D
:100D80001983E06410602DE064EF70088E088E090E
:100D90008E0A8E0B85080C85090D850A0E850B0FB2
:100DA0009005A278081212C2E50C450D450E450FBC
:100DB00070347E01900391E064017056D2849003F8
:100DC00092E4F08051D2AAD2AF8A088B09E4F50AE6
:100DD000F50B9005C6780C1213237808790C120FC6
:100DE000CC79061200B6900391E06003020D6A12FE
:100DF0000D221200DBE9F874096870077906120009
:100E0000B680917407686084E8608974066870A48D
:100E10008082C2AFC2AAEEF9740112123D7F0802AD
:100E20001169C082C083900391E07005120881802F
:100E30001E900392E06015A28F500BE5F98A828B19
:100E400083F07A0180027A007B0080031209740229
:100E50000D40C082C083900391E070051208C880E5
:100E600003120A0A020D40C0E074F21210B29000A0
:100E700001E064CD7005122013802AE064F570242F
:100E8000E5C1C28BC0E0900415E0F8749428F582A7
:100E9000E43403F583D0E0F0900415120AFA40051B
:100EA000E4F08001007F01021111C0E074F2121021
:100EB000B2900001E064CD700512203B800BE0642D
:100EC000F5700512094A80010080DA74F612104CA0
:100ED000890A740F550AF508750900740B78081211
:100EE000129CEA2400F8EB3480F9E82400E9350983
:100EF000F985C709A2AFE433F508C2AFE50AC454C7
:100F00000FFAE5C754F84AF5C7740A12133FE0FA1E
:100F1000A3E0FB801C88828983E08C828D83F0882B
:100F2000828983A3A882A9838C828D83A3AC82AD9E
:100F300083EAFEEBFFEE24FF1AEF34FFFBEE4F7067
:100F4000D48509C7E508A2E092AF7F030211697456
:100F5000F712104CED900389F0ECA3F0A37462F04B
:100F6000A37473F0A3E0541FF0740912133FE0F56B
:100F700008A3E0F509E508333354FC90038EF074C0
:100F80000678081212F6E50890038DF090038F742E
:100F900012F0A37442F075D1FE75D601EA90627129
:100FA000F0EBA3F0906270E0D2E1F0E0A2E740FB4A
:100FB0007F02021169C082C083E9C333906272F07C
:100FC000906270E0D2E0F0D083D08222080808EA74
:100FD000C0E0EBC0E086F0E7A4FA180986F0E7A4C9
:100FE0002AFA180986F0E7A42AFA180986F0E7A475
:100FF0002AFA1986F0E7A4FBE5F02AFA190886F028
:10100000E7A42BFBE5F03AFA190886F0E7A42BFBDE
:10101000E5F03AFA18180986F0E7A4C5F02BFBE4CE
:101020003AFA1908E7C5F0C6A426F6E5F03BFBE45A
:101030003AFA1886F0E7A4F6E5F00826F6E43B084D
:10104000F6E43A08F6D0E0FBD0E0FA222518C58293
:10105000C0E0E51934FFC583C0E0E518C3958224DC
:10106000F910AF0885831985821880088583198552
:101070008218D2AFCEF0A3E520F0A37808E608F0FE
:10108000A3DEFAEFF0A3E58124FBF8E608F0A3E67F
:1010900008F0A30808E608F0A3E608F0A3158115F8
:1010A00081D0E0FED0E0F815811581E8C0E0EEC007
:1010B000E022C0D02518C582C0E0E51934FFC58301
:1010C000C0E0E518C3958224F310AF088583198525
:1010D00082188008858319858218D2AFC8F0A3E9E9
:1010E000F0A3EAF0A3EBF0A37908E709F0A3D8FA9C
:1010F000ECF0A3EDF0A3EEF0A3EFF0A3D0E0F0A3AB
:10110000D0E0F0A3D0E0F0A3E520F0A3E5F0F0A359
:1011100022851983851882E0C0E0A3E0F9A3E0FAF4
:10112000A3E0FBA37808E0F608A3DFFAE0FCA3E065
:10113000FDA3E0FEA3E0FFA3E0C0E0A3E0C0E0A3C6
:10114000E0F5D0A3E0F520A3E0A3F5F010AF08850B
:1011500083198582188008858319858218D2AFD0BB
:1011600082D083D0E0F8D0E032851983851882E000
:10117000A3FEE0A3F5207808E0A3F608DFFAE0A3D9
:10118000FFE0A3C0E0E0A3C0E0E0A3C0E0E0A3C0B4
:10119000E010AF088582188583198008858218853C
:1011A0008319D2AFD083D08222E490030278A17950
:1011B000038002F0A3D8FCD9FA7AA27B0590008EB6
:1011C000782979018015E493A3AD82AE838A828B5E
:1011D00083F0A3AA82AB838D828E83D8E9D9E712EC
:1011E0000B01121349C008C3E096F50808A3E09666
:1011F000420808A3E096420808A3E096450870015B
:10120000D3D00822C5822518C582C583351910AFF1
:1012100007F5198582188007F519858218D2AFC5A0
:1012200083222518F58210AF08F518400C15198097
:1012300008F51840021519D2AF8519832200C0D0D5
:10124000251810AF08F518500C05198008F518502E
:10125000020519D2AFD0D0226016080808C6C31301
:10126000C618C613C618C613C618C613C6D5E0EAF4
:1012700022251810AF08F518400C15198008F5182C
:1012800040021519D2AF22E066701008A3E0667024
:101290000A08A3E066700408A3E0662270042260D6
:1012A0000D18C6C333C608C633C6D5E0F41822E607
:1012B00027F60809E637F60809E637F60809E6379B
:1012C000F622E026F608A3E036F608A3E036F60894
:1012D000A3E036F62274028000C0E0F40412122269
:1012E000D0E0121332222518FAE43519FB22251812
:1012F000FCE43519FD22600C08C6C313C618C613DA
:10130000C6D5E0F42275D00075813F7518027519B5
:10131000030211A9E6F008A3E6F008A3E6F008A38B
:10132000E6F022E0F608A3E0F608A3E0F608A3E062
:10133000F622CAC0E0E6F0A308DAFAD0E0FA2225E5
:1013400018F582E43519F5832200000080FBFFFFC9
:10135000FFFFFFFFFFFFFFFFFFFFFFFFFFFFFFFF9D
:10136000FFFFFFFFFFFFFFFFFFFFFFFFFFFFFFFF8D
:10137000FFFFFFFFFFFFFFFFFFFFFFFFFFFFFFFF7D
:10138000FFFFFFFFFFFFFFFFFFFFFFFFFFFFFFFF6D
:0A1FF600CA05094338860000000008
:020000040003F7
:01FFF000F020
:020000040000FA
:10200000022C05022213FFFFFFFFFFFFFFFFFFFF70
:10201000FFFFFFFFFFFFFFFFFFFFFFFFFFFFFFFFD0
:10202000FFFFFFFFFFFFFFFFFFFFFF022A09FFFF88
:10203000FFFFFFFFFFFFFFFFFFFFFFFFFFFFFFFFB0
:10204000FFFFFF02275DFFFFFFFFFFFFFFFFFFFF17
:10205000FFFFFF022153FFFFFFFFFFFFFFFFFFFF17
:10206000FFFFFFFFFFFFFFFFFFFFFF0228D2FFFF81
:10207000FFFFFFFFFFFFFFFFFFFFFFFFFFFFFFFF70
:10208000FFFFFF0221A7FFFFFFFFFFFFFFFFFFFF93
:10209000102010200100F8FE0700000100FFFF00E3
:1020A00000030400000F0000000300019651180017
:1020B000020000623100000000C630EC313231AA6B
:1020C000310000F03000000000000000000000FCC3
:1020D0003000000000000000000000083106FFFF93
:1020E000FF010400005818000000E8030000FFFF93
:1020F000D2180188130000E803000064006400B8EF
:1021000001A0BB0D00A0BB0D0002020207010101EE
:10211000051E0205140201780AFF010101080908E1
:1021200003B80B02803E0102FEFFE8030A0500012E
:10213000FFFF0A011401E00105030101FF0F10FE7A
:10214000FF4F4B00000000E74A00000000FF0000C6
:1021500000FF00C0E074F2122526A2AFE433F508B8
:10216000D2AFAFA7AEA1EE5F54106006122E4A7533
:10217000A1EFEE5F54086008122E5075A1F780237E
:10218000EEA2E092F0EFA2E082F05017906198E0AA
:10219000F8900668E0C398A2D265D0335002E8F008
:1021A00075A1FEE5088063C0E074F2122526A2AF97
:1021B000E433FED2AF9061A4E0F8759B00E591583E
:1021C000540860087591F7122E9E8023E5915854AB
:1021D0001060087591EF122EA48014E591A2E09290
:1021E000F0E8A2E082F05007E0C2E0F0122FFA908F
:1021F00061A3E0F8E5E9585404600E122FD075E9A8
:10220000FB906193E0A2E640F2EEA2E092AF7F0184
:10221000022585C0E074F2122526A2AFE433FED277
:10222000AF9061A5E0F8E5BF585404600675BFFBA8
:1022300012301280D4C3E498F8E499F9122276801F
:1022400026C3E49AFAE49BFBE920E7E9122276E44C
:1022500098F8E499F922C3E498F8E499F9122276FF
:10226000E498F8E499F9C3E49AFAE49BFB22EB20A2
:10227000E7CFE920E7E0B90010BB0008E88AF08466
:10228000F8AAF022E4FBC8FA22EB70227B10C833D4
:10229000C8C933C9335007C39AC3DBF280069A50CA
:1022A000012ADBEAC833F4C8C933F4C9FA2275F04D
:1022B00008E4C833C8C933C933C99AC99B5004C993
:1022C0002AC93BD5F0ECFBC833F4C8E4C9FA227440
:1022D000F51224C074FA122A9C7508047509007856
:1022E000081229C07404122A667AF87B077903124F
:1022F0002D4E74021229EE90811D7808122C337431
:1023000002122C8A7808122AC770487508027509CB
:102310000078081229C07402122A667AF67B0779BF
:1023200003122D4E74021229EE851882851983E05E
:10233000F47003A3E0F4601B851882851983E0F82C
:10234000A3E08882F5837402F0A3F0A37469F0A37C
:1023500074A5F0C2AF75D69F02000074061229EE74
:102360007F040227A0080808EAC0E0EBC0E086F07E
:10237000E7A4FA180986F0E7A42AFA180986F0E714
:10238000A42AFA180986F0E7A42AFA1986F0E7A425
:10239000FBE5F02AFA190886F0E7A42BFBE5F03AF2
:1023A000FA190886F0E7A42BFBE5F03AFA181809A9
:1023B00086F0E7A4C5F02BFBE43AFA1908E7C5F06C
:1023C000C6A426F6E5F03BFBE43AFA1886F0E7A44B
:1023D000F6E5F00826F6E43B08F6E43A08F6D0E025
:1023E000FBD0E0FA22E4CFC0E0E4CEC0E0E4CDC010
:1023F000E0E4CCC0E075F020E626F608E633F60807
:10240000E633F608E633F6181818EC33FCED33FD26
:10241000EE33FEEF33FFC3EC9709ED9709EE970912
:10242000EF97191919400FFFEC97FC09ED97FD097B
:10243000EE97FE191906D5F0BFECF709EDF709EE96
:10244000F709EFF7191919D0E0FCD0E0FDD0E0FE54
:10245000D0E0FF222518C582C0E0E51934FFC5830E
:10246000C0E0E518C3958224F810AF08858319856C
:1024700082188008858319858218D2AFCEF0A3E533
:1024800020F0A37808E608F0A3DEFAEFF0A3E581D8
:1024900024FAF8E608F0A3E608F0A3E608F0A3089B
:1024A00008E608F0A3E608F0A315811581D0E0FE48
:1024B000D0E0F8158115811581E8C0E0EEC0E0227A
:1024C0002518C582C0E0E51934FFC583C0E0E518D2
:1024D000C3958224F910AF08858319858218800876
:1024E000858319858218D2AFCEF0A3E520F0A378BA
:1024F00008E608F0A3DEFAEFF0A3E58124FBF8E696
:1025000008F0A3E608F0A30808E608F0A3E608F040
:10251000A315811581D0E0FED0E0F815811581E882
:10252000C0E0EEC0E022C0D02518C582C0E0E519A9
:1025300034FFC583C0E0E518C3958224F310AF08CB
:102540008583198582188008858319858218D2AF02
:10255000C8F0A3E9F0A3EAF0A3EBF0A37908E70938
:10256000F0A3D8FAECF0A3EDF0A3EEF0A3EFF0A304
:10257000D0E0F0A3D0E0F0A3D0E0F0A3E520F0A3FA
:10258000E5F0F0A322851983851882E0C0E0A3E07E
:10259000F9A3E0FAA3E0FBA37808E0F608A3DFFACA
:1025A000E0FCA3E0FDA3E0FEA3E0FFA3E0C0E0A306
:1025B000E0C0E0A3E0F5D0A3E0F520A3E0A3F5F0B0
:1025C00010AF088583198582188008858319858254
:1025D00018D2AFD082D083D0E0F8D0E032122C7F76
:1025E000B9000302261CE49004017839791B8002AB
:1025F000F0A3D8FCD9FA7A397B1E90209478C07960
:10260000018015E493A3AD82AE838A828B83F0A30D
:10261000AA82AB838D828E83D8E9D9E7758219753A
:1026200083C0740612299A7582E475834874001277
:10263000299AE47375F0108E1A8F1B85821F85838B
:102640001E851882851983E0CEA3E0CF851F828581
:102650001E83EBC9EAC8EDCBECCAC3E833C8E93343
:10266000C9EA33CAEB33CBC3EA9EF51DEB9FF51CD9
:10267000B35004AB1CAA1DEC33CCED33CDD5F0DA4E
:10268000AE1AAF1B22D083D082ECC0E0EDC0E0E4F4
:1026900093A3FCE493A3FDED4C600D1227E0EC2422
:1026A000FFFCED34FFFD80EFE493A3FCE493A3FD76
:1026B000ED4C600D12287DEC24FFFCED34FFFD8015
:1026C000EFD0E0FDD0E0FCE493A3C0E0E493C0E0F1
:1026D00022851983851882E0A3FEE0A3F5207808FF
:1026E000E0A3F608DFFAE0A3FFE0A3C0E0E0A3C0A8
:1026F000E0E0A3C0E0E0A3C0E0E0A3C0E010AF08CA
:102700008582188583198008858218858319D2AF40
:10271000D083D0820229A0D083D082E9C0E0E493A4
:10272000A3C386F0C5F095F0F908E493A386F0C53D
:10273000F095F0700BE493A3C3994005E90480027F
:10274000A3E475F002A42582F582E5F03583F583D4
:10275000D0E0F9E493A3C0E0E493C0E022C0E074C9
:10276000F2122526A2AFE433FED2AFC2C0901AE027
:10277000E0700BE5D1A2E4501D122DB48018E5D114
:10278000A2E3500675D1F7122D84E5D1A2E45006DC
:1027900075D1EF122D8AEEA2E092AF7F010225855E
:1027A000851983851882E0A3FEE0A3F5207808E070
:1027B000A3F608DFFAE0A3FFE0A3C0E0E0A3C0E0D7
:1027C000E0A3C0E0E0A3C0E010AF088582188583D5
:1027D000198008858218858319D2AFD083D08222D0
:1027E000C0E0C3E49396087401939618400FE493F5
:1027F00066700808740193661870007019A3A3C36B
:10280000E49396087401939618A3A3400DD0E0D0EA
:10281000E0D0E00226C1A3A3A3A3A3A3D0E0227427
:1028200004800474028000CCC0E0EDC0E0E518C371
:102830009CCCAD1950011D10AF068C188D19800667
:102840008C188D19D2AF12291CD0E0FDD0E0FC22EB
:1028500074028000CCC0E0EDC0E0E518C39CCCADB4
:102860001950011D10AF068C188D1980068C188D1B
:1028700019D2AF1228FAD0E0FDD0E0FC22C0E0C0AF
:10288000F088F0E49366700808740193661870008D
:10289000A8F0A3A3700BD0F0D0E0D0E0D0E00226E7
:1028A000C1A3A3D0F0D0E022D083D082CCC0E0E49A
:1028B00093A3600612297B1470FAE493A3600612B6
:1028C0002A861470FAD0E0FCE493A3C0E0E493C03D
:1028D000E022C0E074F2122526758900C2C5901A64
:1028E000E0E0700E7A007B10900700E0F912332AC6
:1028F0008003123A927F01022585CAC0E0E493A3C7
:10290000C582CCC582C583CDC583F0A3C582CCC5A5
:1029100082C583CDC583DAE5D0E0CA22CAC0E0E033
:10292000A3C582CCC582C583CDC583F0A3C582CCA7
:10293000C582C583CDC583DAE6D0E0CA2270090816
:102940000808226016181818C6C333C608C633C64E
:1029500008C633C608C633C6D5E0EA22C008C3E0BD
:1029600096F50808A3E096420808A3E096420808F6
:10297000A3E09645087001D3D00822C0E0E493A3F9
:10298000D39C5010E493A3C39C400AD0E0D0E0D085
:10299000E00228C5A3A3A3D0E022C09FF59FE47363
:1029A000D09F22D083D082C09FE493C0E074019373
:1029B000C0E0740293F59F227404800A74038006B9
:1029C000740280027401C0E0F4041229D3D0E01232
:1029D0002C42222518F58210AF08F518400C151965
:1029E0008008F51840021519D2AF8519832200C05E
:1029F000D0251810AF08F518500C05198008F518E7
:102A000050020519D2AFD0D022C0E0C0D0E8C0E05B
:102A1000A8A8D2AFC2C7E8A2E792AFD0E0F8D0D062
:102A2000D0E032BB0102E722C082C08389828A8360
:102A3000BB0003E08002E493D083D08222601608BA
:102A40000808C6C313C618C613C618C613C618C6C8
:102A500013C6D5E0EA222518F8E43519F92225181D
:102A6000FAE43519FB222518FCE43519FD22C3E0F0
:102A7000C696F608A3E0C696F608A3E0C696F60842
:102A8000A3E0C696F622C0E0E493A36C7009D0E000
:102A9000D0E0D0E00228C5A3A3D0E022251810AFD3
:102AA00008F518400C15198008F51840021519D2C0
:102AB000AF22E76670100809E766700A0809E76642
:102AC00070040809E76622E066701008A3E06670EB
:102AD0000A08A3E066700408A3E06622C3E0960833
:102AE000A3E09608A3E09608A3E096A2D265D033AF
:102AF00022C3E697F60809E697F60809E697F6086E
:102B000009E697F622C3E096F008A3E096F008A342
:102B1000E096F008A3E096F022E026F008A3E03665
:102B2000F008A3E036F008A3E036F022E493F608BC
:102B3000740193F608740293F608740393F622E680
:102B400047F60809E647F60809E647F60809E647A2
:102B5000F622E627F60809E637F60809E637F6080A
:102B600009E637F622E026F608A3E036F608A3E0E9
:102B700036F608A3E036F622E657F60809E657F6D9
:102B80000809E657F60809E657F622E056F608A3C4
:102B9000E056F608A3E056F608A3E056F622E05603
:102BA000F008A3E056F008A3E056F008A3E056F0C2
:102BB00022700422600D18C6C333C608C633C6D5BA
:102BC000E0F41822E4C396F608E496F608E496F6D4
:102BD00008E496F622C6F4C608C6F4C608C6F4C6CB
:102BE00008C6F4C622C3E7960809E7960809E796DF
:102BF0000809E79622C3E09608A3E09608A3E096AA
:102C000008A3E0962275D00075813F7518017519EB
:102C100004000225DD600C08C6C313C618C613C61F
:102C2000D5E0F422E6F008A3E6F008A3E6F008A356
:102C3000E6F022E0F608A3E0F608A3E0F608A3E039
:102C4000F622CAC0E0E6F0A308DAFAD0E0FA22EAF7
:102C5000F0A3EBF0A3ECF0A3EDF022E0FAA3E0FB8D
:102C6000A3E0FCA3E0FD22E0F8A3E0F9A3E0FAA3CF
:102C7000E0FB22E8F0A3E9F0A3EAF0A3EBF022E501
:102C8000C754F84401F5C77901222518F582E435C7
:102C900019F583221229A32B97051229A32599053B
:102CA0001229A34199051229A38699051229A31671
:102CB0009A051229A36E9A051229A3509B05122981
:102CC000A3359C051229A37A9C051229A3DB9C0538
:102CD0001229A3679D051229A3939D051229A3DE3E
:102CE0009D051229A3049E051229A39C9E05122965
:102CF000A3459F051229A3989F051229A3C99F05E3
:102D00001229A300A0051229A3A4A1051229A370CA
:102D1000A2051229A323A3051229A3C7CE061229AF
:102D2000A3CECE061229A3E6CE061229A3F9FF01EF
:102D30001229A3E9FF021229A377FF021229A38710
:102D4000FF021229A399FF021229A3DDFF02122913
:102D5000A3B3CA061229A336CB061229A39CCB061D
:102D60001229A3F3FF011229A3E7FF051229A3F7F4
:102D7000FF051229A34ACF061229A321CF06122943
:102D8000A32ACF061229A333CF061229A341CF06C7
:102D90001229A301FA021229A36EFA021229A336FC
:102DA000FB021229A3ABFB021229A3AEFC021229DB
:102DB000A34FFE021229A3B4FE021229A3FFFE02B2
:102DC0001229A310FF021229A31FFF021229A33503
:102DD000FF021229A348FF021229A353FF0212295E
:102DE000A364FF021229A37F86061229A3AB8606DD
:102DF0001229A32D89061229A38489061229A3C4A6
:102E000089061229A3D889061229A3F18906122955
:102E1000A3E28A061229A3938B061229A3A78B0685
:102E20001229A37DC3061229A3A1C3061229A3BA9E
:102E3000C3061229A3ECC3061229A31CC406122937
:102E4000A349C4061229A3ABC4061229A3BAC40617
:102E50001229A3C4C4061229A3D1C4061229A3DFD0
:102E6000B3061229A3FFB3061229A33EB406122902
:102E7000A359B4061229A378B4061229A3DEB40616
:102E80001229A3E7B4061229A344B5061229A353B5
:102E9000B5061229A377B5061229A338B60612295A
:102EA000A345B6061229A356B6061229A3B7FF04F6
:102EB0001229A3CFFF041229A3FBFF041229A3B5F3
:102EC00095061229A30997061229A3179706122916
:102ED000A32A97061229A33F97061229A3549706FF
:102EE0001229A36797061229A3DB97061229A3408C
:102EF00098061229A3E298061229A3A69906122978
:102F0000A3B699061229A3C599061229A32ECE06A7
:102F10001229A352CE061229A37ACE061229A3A201
:102F2000CE061229A384B6061229A3ABB60612292F
:102F3000A3CAB6061229A332B7061229A3CDB0063A
:102F40001229A3E6B0061229A3F2B0061229A3069D
:102F5000B1061229A324B1061229A32EB106122903
:102F6000A338B1061229A34BB1061229A3DCB1067E
:102F70001229A34BB2061229A37FB2061229A3CDB0
:102F8000B2061229A31AB3061229A335B3061229D1
:102F9000A33FB3061229A365B3061229A3CAB30639
:102FA0001229A377CD061229A399CD061229A3E4ED
:102FB0007F001229A388F6011229A3B2F601122973
:102FC000A3CFF6011229A3E2F6011229A3F8F60114
:102FD0001229A356F7011229A389F7011229A37E0A
:102FE000FB011229A3DEFC011229A311FD01122904
:102FF000A35BFD011229A3C7FE011229A3EFFE0165
:103000001229A304FF011229A314FF011229A358B6
:10301000FF011229A3B3FF011229A3C3FF01122943
:10302000A336C6061229A350C6061229A378C606DF
:103030001229A391C6061229A3B5C6061229A3D345
:10304000C6061229A3EAC6061229A318C706122922
:10305000A333C7061229A3A1FF051229A344AD0675
:103060001229A354AD061229A359AE061229A38B27
:10307000AE061229A3BBAE061229A3DEAE061229A4
:10308000A3F5AE061229A32FAF061229A398AF0607
:103090001229A3DAAF061229A319B0061229A34AEE
:1030A000B0061229A375B0061229A3F6A1061229AB
:1030B000A35BA2061229A301A3061229A338A30623
:1030C0001229A394B1051229A32BB2051229A359E1
:1030D000B4051229A33DB7051229A3C7B8051229C3
:1030E000A333B9051229A382BC051229A3CDBD05BE
:1030F0001229A366C7061229A3B1C7061229A399EC
:10310000FD031229A3A9FF031229A35AF1051229CD
:10311000A387F1051229A3C6F2051229A35FF405BE
:103120001229A3E3F6051229A31AF7051229A368A9
:10313000F8051229A3CF7A001229A3757D00122960
:10314000A31A7E001229A3467E001229A3747E00D2
:103150001229A3A97E001229A3D17E001229A3312E
:103160007F001229A34ACC051229A3CBD00512292E
:10317000A380D2051229A3A9D3051229A389D405B6
:103180001229A337D6051229A3DAD7051229A3A637
:10319000D8051229A3FAD8051229A3E8BD061229D9
:1031A000A3F3BD061229A314BE061229A3F4EC044E
:1031B0001229A3CBF2041229A32BF4041229A3F59C
:1031C000F5041229A3EEF6041229A320F80412290B
:1031D000A354F9041229A360FA041229A348FB049A
:1031E0001229A329FC041229A392DB021229A3CAE3
:1031F000DB021229A3D8E5021229A3B9E60212299B
:10320000A305E8021229A34EE9021229A304EA0247
:103210001229A3D8EA021229A3D6EB021229A31D70
:10322000ED021229A304EE021229A3F7EE021229DD
:10323000A399EF021229A3C3EF021229A373F1028B
:103240001229A3E3F1021229A3FCF1021229A353CC
:10325000F3021229A304F4021229A386F40212290C
:10326000A332F5021229A3A6F5021229A342F602FF
:103270001229A3BAF6021229A3F2F6021229A3F424
:10328000F7021229A3AFF8021229A35AF902122950
:10329000A311C2061229A33BC2061229A34DC306DD
:1032A0001229A350C3061229A398CC061229A3D72A
:1032B000CC061229A319CD061229A329CD0612295D
:1032C000A36DCD061229A30080061229A33E800615
:1032D0001229A3A780061229A3C480061229A3DD00
:1032E00080061229A38F81061229A398810612292C
:1032F000A3DD81061229A31382061229A32A8206BE
:103300001229A39C82061229A32983061229A35FEE
:1033100083061229A3B683061229A31A840612294A
:10332000A33D84061229A3A184061229A3FD8406C5
:103330001229A33885061229A36D85061229A37FB9
:1033400085061229A39185061229A3C9850612298B
:10335000A31586061229A35386061229A3A4900654
:103360001229A3E491061229A30792061229A31891
:1033700092061229A30D94061229A32D9406122950
:10338000A3A8BB061229A3DEBB061229A326BC06EE
:103390001229A382BD061229A3F0E9031229A32151
:1033A000EB031229A35BEB031229A31AED031229E5
:1033B000A344ED031229A3D1EF031229A311F003B3
:1033C0001229A3A8F1031229A33BF2031229A39304
:1033D000F2031229A336F3031229A36EF303122971
:1033E000A3B0F3031229A31FF5031229A371F60357
:1033F0001229A394F8031229A3C2F8031229A3E9FE
:10340000F8031229A3F2F8031229A349F903122998
:10341000A3DBF9031229A3C9FC031229A34CFD0362
:103420001229A36CCF061229A382CF061229A3FE6C
:1034300099061229A3149A061229A3B99A061229E9
:10344000A3F89A061229A3159B061229A3469B06E8
:103450001229A3939B061229A3C69B061229A30136
:103460009C061229A3ED9D061229A388C8061229DD
:10347000A3E7C8061229A332C9061229A3A0C906C8
:103480001229A312CA061229A350CA061229A3910F
:10349000CA061229A3E5E1051229A3EBE1051229C9
:1034A000A32CE2051229A31EE4051229A34EE4056C
:1034B0001229A3BDE4051229A38BE5051229A3CC8B
:1034C000E5051229A3FAE5051229A384E6051229C8
:1034D000A39BE6051229A3A8E6051229A3B2E605D7
:1034E0001229A34EE8051229A35EE9051229A3A714
:1034F000E9051229A3E4E9051229A3FAE90512292D
:10350000A38DEA051229A3CEEB051229A30EEC0523
:103510001229A38CEC051229A3E9EC051229A303B7
:10352000ED051229A32AED051229A37DED05122927
:10353000A35FEF051229A364EF051229A384EF0509
:103540001229A3C1BA041229A3F3BA041229A3555C
:10355000BC041229A320BE041229A33CBE041229D4
:10356000A38BBE041229A30DBF041229A320BF04FC
:103570001229A369BF041229A3C4BF041229A36E90
:10358000C0041229A378C1041229A3BDC1041229C1
:10359000A369C3041229A32AC4041229A351C50490
:1035A0001229A3CEC5041229A38DC6041229A31281
:1035B000C7041229A34FC7041229A398C7041229CC
:1035C000A3AEC7041229A364C8041229A340C904E6
:1035D0001229A34BC9041229A3B2C9041229A305B5
:1035E000CA041229A368CA041229A364CB041229AD
:1035F000A30ACE041229A329CE041229A343CF047F
:103600001229A367CF041229A3D5CF041229A3F34B
:10361000CF041229A32AD0041229A39CD004122972
:10362000A3BCD1041229A3ECD1041229A3F6D1041E
:103630001229A3F9D1041229A303D2041229A31633
:10364000D2041229A387D2041229A3BDD2041229BD
:10365000A3D0D2041229A3FCD2041229A323D30499
:103660001229A347D3041229A3F5D3041229A3676F
:10367000D4041229A39ED4041229A3A1D40412298C
:10368000A3D8D4041229A3EED4041229A30BD50481
:103690001229A339D5041229A34FD5041229A367EF
:1036A000D5041229A379D5041229A3B5CB06122972
:1036B000A3C6CB061229A347CC061229A3F6FF0105
:1036C0001229A396F8051229A3E5F8051229A38566
:1036D000FA051229A359FC051229A39BFC051229FE
:1036E000A366FD051229A36EFE051229A390FE050F
:1036F0001229A3ECFE051229A36DFF051229A3B21E
:103700004E001229A3D44E001229A367500012299B
:10371000A3B050001229A32451001229A3A15100E3
:103720001229A30652001229A30952001229A34B01
:1037300052001229A3BA52001229A3695300122978
:10374000A36C53001229A3E153001229A3245400AF
:103750001229A31A58001229A38559001229A3C3BC
:1037600059001229A3195A001229A35F5D001229DA
:10377000A3DC5D001229A38A5F001229A3BA6000AE
:103780001229A3F061001229A36A62001229A38DF5
:1037900063001229A32764001229A32A64001229B6
:1037A000A3F864001229A32166001229A33A680035
:1037B0001229A3146A001229A3A56A001229A3B32F
:1037C0006D001229A3586E001229A3476F00122919
:1037D000A39672001229A3A672001229A3247400D2
:1037E0001229A3B574001229A3B275001229A349A6
:1037F00077001229A3E377001229A3087900122980
:10380000A35279001229A3127A001229A384CD03AE
:103810001229A324CE031229A38ECE031229A3A713
:10382000CE031229A33ECF031229A382CF0312296C
:10383000A3A4D0031229A3E0D0031229A35CD103CF
:103840001229A3A7D1031229A306D2031229A31672
:10385000D3031229A336D6031229A357D70312295B
:10386000A3D2D7031229A3B9D9031229A359DA0382
:103870001229A300DB031229A363DB031229A3D8B7
:10388000DB031229A3E7DC031229A3BBDD03122902
:10389000A3F1DD031229A320DE031229A3D4DE0342
:1038A0001229A300DF031229A380DF031229A3003A
:1038B000E1031229A38CE2031229A3D4E303122902
:1038C000A33FE5031229A34BE6031229A3EEE60367
:1038D0001229A367E7031229A395E8031229A30479
:1038E000A4051229A36DA4051229A3B5A4051229C4
:1038F000A316A5051229A35FA5051229A397A5055F
:103900001229A331A6051229A38BA6051229A3E328
:10391000A7051229A387A8051229A3AFA805122974
:10392000A39AA9051229A39CA9051229A3FCA905FC
:103930001229A332AA051229A3AAAA051229A3FCB7
:10394000AA051229A32AAB051229A337AC0512290F
:10395000A356AC051229A3D5AC051229A34DAD057C
:103960001229A3D3AD051229A330AE051229A3F95C
:10397000AE051229A3DDAF051229A390B0051229C7
:10398000A3F9B0051229A39CFC041229A385FD0408
:103990001229A34BFE041229A3AFFE041229A3236C
:1039A000FF041229A3FA9D061229A3189E061229C4
:1039B000A35C9E061229A3829E061229A3A89E0636
:1039C0001229A3C09E061229A3D89E061229A3433A
:1039D0009F061229A3859F061229A39A9F061229E2
:1039E000A3AFA0061229A3B8A0061229A3C1A0065E
:1039F0001229A3CAA0061229A3D4A0061229A3AA99
:103A0000E8041229A372A1061229A3BB8B0612296E
:103A1000A31C90061229A33890061229A33D9006F4
:103A20001229A397C0061229A3A0A9061229A3B69A
:103A3000A9061229A33CAB061229A385AB061229BD
:103A4000A3F1AB061229A3E4AC061229A313AD0619
:103A50001229A325AD061229A3DBC4061229A3ED62
:103A600096051229A380B9061229A3C0B906122906
:103A7000A329BA061229A34DBA061229A362BA06CF
:103A80001229A382BA061229A3A2BA061229A3B246
:103A9000BA061229A3C9BA061229A3F5BA06122931
:103AA000A385BB061229A3F5CE061229A300800226
:103AB0001229A33280021229A39E80021229A3395F
:103AC00081021229A3D881021229A31D8202122980
:103AD000A33F82021229A35882021229A37E8202E6
:103AE0001229A3A082021229A3DE82021229A32294
:103AF00083021229A34483021229A3A68302122956
:103B0000A36D84021229A32485021229A39685029B
:103B10001229A36886021229A3B286021229A305DC
:103B200087021229A36B87021229A3A587021229F3
:103B3000A3F787021229A31388021229A33E880241
:103B40001229A3458A021229A3998B021229A3BB29
:103B50008B021229A3EF8B021229A3108C021229C7
:103B6000A31F8C021229A32A8C021229A3DA8C0229
:103B70001229A3438D021229A3F08D021229A32832
:103B80008E021229A3EE8E021229A3FB8F021229A4
:103B9000A34590021229A3D490021229A3389102BE
:103BA0001229A37391021229A3DF93021229A333CE
:103BB00095021229A36C98021229A339990212299D
:103BC000A3C799021229A3DB99021229A3049A021E
:103BD0001229A3769A021229A30A9B021229A37A18
:103BE0009B021229A3629C021229A3849C0212291F
:103BF000A3EA9D021229A3039E021229A3169E0284
:103C00001229A3739E021229A3829E021229A30BDA
:103C10009F021229A3219F021229A333A002122975
:103C2000A33CA0021229A314A2021229A344A302B6
:103C30001229A354A3021229A363A4021229A3DA0E
:103C4000A4021229A313A5021229A343A602122932
:103C5000A389A6021229A355A8021229A32DAC02FA
:103C60001229A341AC021229A34BAC021229A3557D
:103C7000AC021229A35FAC021229A369AC0212297B
:103C8000A382AC021229A38CAC021229A30AAD02B2
:103C90001229A315AD021229A342AD021229A3676E
:103CA000AD021229A372AD021229A3C0AD021229DE
:103CB000A3CAAD021229A3D5AD021229A3F9AD0200
:103CC0001229A31DAE021229A379AE021229A3BFA5
:103CD000AE021229A3DCAE021229A359AF021229A7
:103CE000A390AF021229A3CFAF021229A31CB002E6
:103CF0001229A39EB0021229A337B1021229A307E9
:103D0000B3021229A365B3021229A381B4021229B6
:103D1000A3A7B4021229A3E6B5021229A30CB90283
:103D20001229A34DBB021229A329BD021229A3BF48
:103D3000BD021229A3E6BF021229A392C0021229D2
:103D4000A3C7C0021229A32CC1021229A336C102A3
:103D50001229A360C3021229A34EC4021229A397F9
:103D6000C5021229A3D7C5021229A37DC6021229B2
:103D7000A30EC8021229A397C9021229A3B7C90228
:103D80001229A310CA021229A312CB021229A35C82
:103D9000CB021229A3ACCB021229A396CC02122982
:103DA000A30BCD021229A325CE021229A3A0CE0275
:103DB0001229A3A5CF021229A350D2021229A36F60
:103DC000D2021229A3D0D3021229A392D50212291A
:103DD000A3E6D5021229A39ED6021229A34DD7022B
:103DE0001229A3ADD7021229A363D8021229A3F87E
:103DF000D8021229A364D9021229A39ED90212293A
:103E0000A3CFD9021229A32BDB021229A30080031E
:103E10001229A33280031229A36980031229A35017
:103E200082031229A39082031229A36E830312290D
:103E3000A3C683031229A30185031229A34D850379
:103E40001229A37588031229A3E18B031229A32E3B
:103E50008D031229A3C48D031229A3D08D03122927
:103E6000A3028E031229A3848F031229A392900325
:103E70001229A3BC90031229A31391031229A36C46
:103E800091031229A3D891031229A3EF93031229B6
:103E9000A37E95031229A34896031229A3869703AC
:103EA0001229A3B699031229A3869C031229A3936E
:103EB0009C031229A31A9D031229A3C29D03122950
:103EC000A3059E031229A34E9E031229A3A29E03BB
:103ED0001229A3079F031229A36F9F031229A38C02
:103EE0009F031229A3BC9F031229A3F19F03122948
:103EF000A3C1A0031229A36AA1031229A3EEA3035D
:103F00001229A30EA5031229A3F7A5031229A37949
:103F1000A6031229A397AA031229A3D4AA0312293C
:103F2000A32CAB031229A35FAB031229A3E0AB03BD
:103F30001229A32DAC031229A3B8AC031229A30A9A
:103F4000AD031229A376AE031229A3F8AE031229FA
:103F5000A330AF031229A33DAF031229A340AF033F
:103F60001229A36FAF031229A375B1031229A34B22
:103F7000B2031229A380B2031229A3FDB3031229AD
:103F8000A300B4031229A3CDB4031229A303B703DA
:103F90001229A374B7031229A3B4B7031229A3EDFE
:103FA000B7031229A381B8031229A3CAB90312299E
:103FB000A38DBD031229A37CBE031229A363BF03F3
:103FC0001229A3DBBF031229A39DC0031229A35307
:103FD000C2031229A30AC3031229A322C30312296D
:103FE000A336C3031229A36EC3031229A39CC303E0
:103FF0001229A39CC6031229A3D1C6031229A339EF
:10400000C7031229A378C8031229A394C80312294D
:10401000A3B0C8031229A37EC9031229A362CD034A
:104020001229A3E7A5061229A327A6061229A3DAB7
:10403000A7061229A3E9A7061229A30080051229C1
:10404000A31785051229A36285051229A3B2870546
:104050001229A34689051229A3D489051229A3355B
:104060008C051229A33A8E051229A38E8E051229DA
:10407000A39D90051229A3F090051229A34B910549
:104080001229A36D91051229A37491051229A38CFD
:1040900091051229A36C92051229A34B93051229AD
:1040A000A3A281011229A3E481011229A31A870185
:1040B0001229A36687011229A3AC87011229A3FB49
:1040C00088011229A35789011229A39C8901122969
:1040D000A32F8B011229A3858E011229A3AA8F0178
:1040E0001229A32C9B011229A3BF9B011229A31CF7
:1040F0009F011229A35BA0011229A3B6A0011229D6
:10410000A3FEA1011229A3EAA2011229A381A501FC
:104110001229A3F0A6011229A377A7011229A37AD5
:10412000A7011229A3EFA7011229A3F9A7011229B8
:10413000A306A8011229A331A8011229A3E1A8010D
:104140001229A3DEA9011229A388AA011229A31505
:10415000AB011229A333AB011229A34CAB011229E5
:10416000A375AB011229A397AB011229A3DDAD0101
:104170001229A3C0AE011229A306AF011229A385FB
:10418000AF011229A331B0011229A363B001122992
:10419000A3B5B0011229A3F1B0011229A330B101D6
:1041A0001229A380B1011229A385B1011229A3D933
:1041B000B1011229A305B2011229A3E1B20112290A
:1041C000A331B3011229A39EB3011229A3F8B301AD
:1041D0001229A38FB4011229A3D4B7011229A3EC89
:1041E000B8011229A385BA011229A3B8BD01122969
:1041F000A34ABE011229A341C1011229A300C20191
:104200001229A344C2011229A3E9C3011229A3FD63
:10421000C3011229A307C4011229A311C401122941
:10422000A31DC4011229A339C4011229A399C601EF
:104230001229A3D8C6011229A3E2C6011229A3ECB0
:10424000C6011229A372C7011229A3CAC7011229E4
:10425000A3E7C8011229A34BC9011229A358CA0117
:104260001229A39CCA011229A348CB011229A32118
:10427000CC011229A3DCCC011229A3E9CD0112291A
:10428000A323CF011229A320D0011229A338D001E2
:104290001229A38FD0011229A399D0011229A3A317
:1042A000D0011229A3AED0011229A3CCD00112292A
:1042B000A314D1011229A376D1011229A39DD10102
:1042C0001229A3AFD1011229A34AD2011229A37F37
:1042D000D2011229A37ED3011229A3CCD301122922
:1042E000A3C6D4011229A3FCD4011229A37FD501AE
:1042F0001229A3F0D5011229A39CD7011229A3C624
:10430000D8011229A389D9011229A35ADA01122945
:10431000A3C5DA011229A342DB011229A36FDC0134
:104320001229A303DD011229A353DD011229A3BE23
:10433000DD011229A384DE011229A3CEDE01122998
:10434000A326DF011229A3FEDF011229A321E00128
:104350001229A3E4E0011229A306E1011229A36FA7
:10436000E1011229A385E3011229A375E4011229B1
:10437000A33FE5011229A377E7011229A3C1E701B1
:104380001229A311E8011229A37EE8011229A3E052
:10439000E8011229A30EE9011229A332E901122929
:1043A000A367E9011229A398E9011229A3CBE90126
:1043B0001229A325EA011229A378EA011229A3A44C
:1043C000EB011229A351ED011229A39FED0112293E
:1043D000A3C8ED011229A354EE011229A3C9EE01CD
:1043E0001229A3D7EE011229A3FBEE011229A3582B
:1043F000EF011229A377EF011229A32DF001122951
:10440000A365F0011229A3C8F0011229A3BAF20191
:104410001229A3E4F2011229A3E8F3011229A3FA55
:10442000F4011229A3AAF5011229A31FD905122903
:10443000A357D9051229A378D9051229A3BAD905FA
:104440001229A31CDA051229A326DA051229A3369C
:10445000DA051229A371DA051229A391DE051229C2
:10446000A377E0051229A30EE1051229A396800483
:104470001229A34181041229A3EF81041229A3F573
:1044800082041229A31583041229A33E840412294D
:10449000A3F985041229A36C86041229A3108704AA
:1044A0001229A31C88041229A38788041229A3C3F4
:1044B00088041229A30689041229A3418904122918
:1044C000A38389041229A3188A041229A3948A04B5
:1044D0001229A35E8B041229A33B8C041229A3D3B7
:1044E0008C041229A3ED8C041229A31D8D0412291A
:1044F000A34E8D041229A3148E041229A3248E0422
:104500001229A3738E041229A3808E041229A38971
:104510008E041229A3078F041229A3638F04122982
:10452000A3AE8F041229A3C98F041229A3F48F0408
:104530001229A31190041229A31D90041229A3B4D7
:1045400091041229A3CD91041229A3529204122995
:10455000A36592041229A38492041229A328930428
:104560001229A3A994041229A35C96041229A3F288
:1045700096041229A3F596041229A365970412291B
:10458000A38397041229A31A98041229A3629804FA
:104590001229A36598041229A32B99041229A39820
:1045A00099041229A3BE99041229A3499A04122935
:1045B000A3679A041229A3AD9A041229A3619B044C
:1045C0001229A3AB9B041229A3DA9B041229A33757
:1045D0009C041229A36C9C041229A3989C04122900
:1045E000A3A69C041229A3F39C041229A3639D048F
:1045F0001229A3AC9D041229A3F89D041229A32417
:104600009E041229A32F9E041229A34D9E04122951
:10461000A3389F041229A3429F041229A37D9F045B
:104620001229A38D9F041229A3969F041229A3EA9D
:104630009F041229A3FE9F041229A32DA10412296D
:10464000A340A1041229A355A1041229A3E3A104A4
:104650001229A328A2041229A3B4A2041229A3BFD9
:10466000A2041229A301A4041229A31CA404122940
:10467000A368A4041229A3D7A4041229A310A50493
:104680001229A32AA5041229A38AA5041229A32961
:10469000A6041229A374A6041229A344A90412296A
:1046A000A3F6A9041229A363AA041229A3A3AC04A4
:1046B0001229A3BBAC041229A3BEAC041229A3CABD
:1046C000AC041229A3DEAC041229A3E6AC0412291F
:1046D000A319AD041229A31CAE041229A3A9AE0488
:1046E0001229A319AF041229A39BAF041229A35CBA
:1046F000B0041229A37BB0041229A31CB10412290F
:10470000A379B1041229A37CB1041229A3F0B10446
:104710001229A33FB3041229A345B4041229A3D03C
:10472000B4041229A3EBB5041229A3B3B6041229C9
:10473000A3E4B6041229A307B7041229A310B704EF
:104740001229A33FB7041229A3CFB7041229A385C6
:10475000B8041229A3FAB8041229A3A1B904122992
:10476000A316BA041229A34DBA041229A38BBA04C2
:104770001229A3FEE7041229A336E6041229A37F17
:10478000E5041229A34CE5041229A301E50412292A
:10479000A39EE4041229A35DE4041229A33DE404CA
:1047A0001229A392E3041229A321E3041229A3BF2F
:1047B000E2041229A362E2041229A3D5E00412291B
:1047C000A372E0041229A3DBDF041229A3D2DF04C1
:1047D0001229A3C6DF041229A393DF041229A344DC
:1047E000DC041229A316DC041229A3B1DB0412296C
:1047F000A39EDB041229A393DB041229A3C7960509
:104800001229A357DB041229A34B96051229A3658D
:10481000EC041229A31AEC041229A3AEEB0412290A
:10482000A34BEB041229A321EB041229A385D9047D
:104830001229A36ED9041229A3AED8041229A3A564
:10484000EA041229A3D4D6041229A3C1D60412293A
:10485000A339D6041229A3D0D5041229A324B9065A
:104860001229A3ACD5041229A3F9E8041229A31331
:10487000CC051229A3CCCB051229A36BCB05122999
:10488000A33ECB051229A313CB051229A3DFCA052A
:104890001229A3B7CA051229A357CA051229A34191
:1048A000CA051229A306CA051229A37CC905122923
:1048B000A362C5051229A332C3051229A3D2C005DC
:1048C0001229A35AC0051229A30BC0051229A3FB64
:1048D000BE051229A398BF051229A359BF051229A5
:1048E000A3F5A00600000080FB8F000100D81E8702
:1048F000000100D41A350004009C1E25000200A00F
:104900001E26000200A21E27000200A41E2800018D
:1049100000AE1E29000100AF1E84000400AC1A8600
:10492000000100471E2A000100B01E2B000100B14B
:104930001E2C000100B61E2D000800BB1A2E00011F
:1049400000B71E2F000100B81E30000100B91E3153
:10495000000100BA1E32000100BB1E33000100BC82
:104960001E34000100BD1E36000100C31A380001CC
:1049700000BE1E39000100B51E83000200D51E6373
:10498000000100CF1A64000100B01A65000100B2F6
:104990001E6D000100D01A71000800B31A660001F4
:1049A00000D41E43000100C51E44000200C61E457F
:1049B000000100C81E46000200C91E47000800C7CB
:1049C0001A48000100CB1E4B000100CC1E04000160
:1049D00000D71EA1000100DB1E37000100DA1E888F
:1049E000000100D91E3C000100C41A3D000100BFB7
:1049F0001E49000200CD1E67000100D11A4D0002C1
:104A000000CF1E4E000100D11E4F000200D21E3EFC
:104A1000000100C61A51000100C11E52000100C26F
:104A20001E53000100C41E54000100C51A000000FE
:104A300000000000013636010100010201000103FF
:104A40000100010401060605020000070100340808
:104A500001000F090401010D0100FF0E08000017FD
:104A6000020000190100FF1A0100011B0100FE1CD9
:104A70000100081D0200001F0100012001000121AA
:104A80000200002301000F2402000026010001277C
:104A9000010008280200FF2A0100072B0102402C18
:104AA0000100002D0100012E0100012F0100FF3047
:104AB000010B1D310800003A0100083B01000F3CCA
:104AC0000100013D0100FF3E0400004204000046D9
:104AD0000400004A0400004E040000520400005686
:104AE0000400005A040000010371030103010301E3
:104AF0000301030103220302030103100300030067
:104B00000300030003000300030003420300032427
:104B100003060300030003040312032503230325F4
:104B200003230304030403000300030003440300FE
:104B30000300032303000365032100350381030001
:104B400003050300030003000300032503230303FD
:104B5000007100300160001100700031022003502C
:104B600004800010006100000014006300730072F4
:104B70000062004300000013000600000000000473
:104B800000120000000000000000000400040037D4
:104B90000037003C024400000000000000000065F7
:104BA00000000035008100000005000000830000C7
:104BB0000003027102300160021102700201020260
:104BC0000202028002100261023A00410063027395
:104BD0000272026202430200021302380000020065
:104BE0000204021202000200020002000204020497
:104BF00002370037003C0244020002390000020084
:104C0000026502000235028102000205028202836F
:104C1000020002030471040204600411047004021F
:104C20000402040104020410046104000414046377
:104C300004730472046204430400041304060400B1
:104C400004000404041204000400040004000451DD
:104C50000464000004000400044404000400040090
:104C600004000465040004350481046400050400A4
:104C7000048304000401017101010101011101011A
:104C8000013101010101018001100161013B0014AA
:104C90000063017301720162014301000113010607
:104CA000013D013500040112010001000100010075
:104CB0000104010401330133013C01440132013696
:104CC00000000100016501000135008101000105BE
:104CD0000182018301000136000100060000000F7F
:104CE0000000000000000000000000000003FFFFC3
:104CF00000000403FFFF0000FFFF0FF4010005C4E4
:104D0000040320000100000B000000000000000070
:104D100003010F0000000000000000000000000080
:104D20000000000000000000000000000000000083
:104D300000000000001300A4371F00AA371F80B036
:104D40003700004C3801004C380200263702802022
:104D50003703002C37040032370480383705003E13
:104D60003706004A37300068373100623732007446
:104D70003733007A37350080373400863736008C79
:104D8000371100983714009E3715005C37FFFF007D
:104D9000000A0000000200000004000000080000FB
:104DA0000010000000200000004000000080000013
:104DB00000000100000002000000040000000800E4
:104DC0000000100000002000000040000001E6404C
:104DD0000616410810410B344110BC3D0A46410201
:104DE000EC4005044107F2400CCE400DDA40648EE1
:104DF0003BFF000007ECFDFDFDECDCDCCCBCACAC0B
:104E00009C9C8C7C7C6C6C5C5C5C4C4C3C3C2C2C92
:104E10001C1C00160F00000B150B020002220F33A2
:104E200000000E0F140AE5D5C5B5A5A595858575B5
:104E300065000119161816161823030030301618CD
:104E40001920231A1C1E30003C40423A3F3F392FA4
:104E50004730303017181921301B1D1F3000034D0B
:104E60004C4651181A2505020C0E020B040B0A07BA
:104E700008000F02040201010101090200BE040A38
:104E8000FA06244E0C0028000E00F44D00007F00AE
:104E9000E80300000000FF1E1E0C050803040301C8
:104EA000020A0C09033C0C0805080B0800FF01016D
:104EB0002804C082C0839018C9E4F0A3F07C027D6E
:104EC0001C7A397B1812348C123BBE123E0A123BFC
:104ED000C4026E2674F212245474FE122A9CE9FF56
:104EE0008A08EBFE8C09E9703374026A701679083F
:104EF000123690E4F50AF50B780A1229C0780A12E6
:104F000029C4805374016A6003025039790812364B
:104F1000907B00EEFAF9123C2A02503474016F6063
:104F20000874026F6003025039EA600874036A6013
:104F300003024FD4123FD8E9605374036508604DF3
:104F40001232E28A0A8B0B780A1229C0750A01789C
:104F50000A1229C4750A00780A1229C4E509F50A5B
:104F6000780A1229C4EEF50A780A1229C490185357
:104F700012281F901E47E0F97CC77D1A901ED5129B
:104F80006266123BE8740A1229EE0250347902126A
:104F90003690901E47E0F9901853122C5B123BD6C6
:104FA000E9F8901861E0A2E34010E9700D9018CD87
:104FB000E004F064047003125055740365087076C1
:104FC0009018CEE0F9740129F0E9C3940540671206
:104FD0005055806274016A706074016F790A702C98
:104FE0001236907A007B04901CCEE0F9123450AA5D
:104FF00018AB197950125F5A125F75E81273EF7986
:1050000000901C81126266123C72804412369090AD
:105010001EAA12281F7A007B20901858E0F912343B
:105020004474041229EE901E47E0F9901853122C94
:105030005B123C12E9F8E8601790819512281F7AFC
:10504000017B00901858E0F912344474041229EEE0
:105050007402027883901853E4F0A374F8F0A374F8
:10506000FFF0A37407F02274F6122454E9FFEAFE5D
:105070007AD1F91233068A828B83E5824583702ABE
:105080007A027B001232E8EA4B700E7A107B0090B5
:105090001858E0F912332A80148A828B8374D1F075
:1050A000EFA3F0EEF91232F48003EFA3F00252B551
:1050B00074F71224548908900401126388901E9397
:1050C000E0F47003A3E0F47030900700E0901E93CA
:1050D000F0A3E4F080238E828F831261E9600F8E4B
:1050E000828F83A3A31261E6FAA9081237088E8281
:1050F0008F83125F67E8FEE9FFEE4F70D9901E9331
:10510000E0F47003A3E0F4600A901E93E0FAA908AB
:1051100012370812420C9018231259BD1242067F12
:10512000010226D174F0122454890B8C0C750900ED
:105130007508007410122C8A125F677412122C8A80
:1051400012536380471251EDF50EA3E0F50FAE0840
:10515000EE2EFEE433FFEA2EF582EB126818650EA0
:105160007004A3E0650F7019AE09EE2EFEE433FF64
:10517000EC2EF582ED3FF583E50EF0A3E50FF0058B
:1051800009050AE50AC3950C40BB0508E508C39567
:105190000B5005750A0080EBA90980007F080226E4
:1051A000D174F4122454890B7D00740C122C8A12D1
:1051B0005F6780010DEDC3950B502E750A008002CC
:1051C000050AE50AC39C50ECED25E0FEE433FFEA56
:1051D0002EF582EB3F1273BD1251ED65087004A3EA
:1051E000E0650970DB7901800279008014AE0AEE77
:1051F0002EFEE433FFE82EF582E912595A221229D5
:10520000EE7F040226D10229A074F6122454125211
:105210009F7003A3E06D701775085F750918780813
:105220001229C0EEFA12385274021229EE801A7551
:10523000080275098078081229C08A088909780847
:105240001229C012528D1229EE806A74F61224546B
:1052500012529F7003A3E06D701775086C750918E2
:1052600078081229C0EEFA12385874021229EE801A
:105270001A75080375098078081229C08A088909F7
:1052800078081229C012528D1229EE8028EE240EC1
:10529000125957FD7C801264C9123876740422EAD0
:1052A000FEEBFF1264DEFCE439FD901823E06C2273
:1052B00074021229EE7F020226D174F6122454746D
:1052C000FE122A9C8A088B09851882851983E4F0CE
:1052D000A3F0125DD6126612FBECFA88828983A3D2
:1052E000A3E0F97F007E00600574FF6970047E8290
:1052F0008045901823E06A7003A3E06B701AAA1827
:10530000AB19124896E9FA8518828519831264212F
:1053100070027E83EAFF801F901AD4E0600464016B
:10532000700E123B46E960047E89800B7E81800707
:10533000E0640270027E8012535DEEF9AA08AB09A8
:1053400012385EEF6014851882851983126421601B
:1053500009851882851983126E510252B085188210
:10536000851983E0FCA3E0FD220229A074F2122437
:1053700054EAFEEBFF7508007509001264DAF50ABD
:10538000E439F50B12420CEA650A7003EB650B7009
:1053900012124884E914F50879017A957B181248AD
:1053A0007E8003750980126812F50C780C1229C4EE
:1053B000750C95750D18780C1229C078081229C43F
:1053C000780A1229C0E509F50878081229C4126282
:1053D00055126815F97A057B8012386474070278D3
:1053E0008374F6122454E9FF7E0080308A828B8316
:1053F0001273C5F8E4C8F9E50828E439F509EE2583
:10540000E0F8E433F9EC28F582ED39F583E508F0AE
:10541000A3E509F0EA2402FA50010B0EEEC39F4007
:10542000CB0252B574E812245474FE122A9C8A10DE
:105430008B11750F00851882851983E4F0A3F0F5B0
:1054400016F5171260B535111275951279F6FA8EA8
:10545000828F83A3A3A3E0F9EAF508E439F509AA4A
:105460000AAB0B1242A8E96401702B1272161229C2
:10547000C4E4F508F50978081229C078081229C48F
:10548000780A1229C075088078081229C41257FCBE
:105490001229EE0257E5AA0AAB0B1242A8E97041A5
:1054A000901823E0650A7004A3E0650B6033901A3E
:1054B000D4E0640270281272161229C4E4F508F5CB
:1054C0000978081229C078081229C4780A1229C05C
:1054D00075088078081229C41257FC1229EE025769
:1054E000E58E828F83A3A3A3A3E0F50BEE2405FE34
:1054F00050010FE50B602A1278DA8518828519832E
:10550000EAF0A3EB12682FE849601612535DEEFA39
:10551000EFFBA90B1237448A0C8B0DAE0CAF0D803C
:1055200003750B001278F0601A1278DA8A168B175E
:10553000EA4B600FAC16AD17EEFAEFFBA90A123773
:10554000448003750A0090040180508E828F83A3EB
:10555000A3A3A3A3A3A3A3E4F0A3F0EEFAEFFB8518
:105560001482851583A3A3E0F81261E6F91232F4E0
:10557000851282851383E0C0E0A80F749528F58218
:10558000E43418F583D0E0F0050FA2005007AA120A
:10559000AB13123390851482851583E0F514A3E0D4
:1055A000F515E514451570030257638514828515BA
:1055B000831261E960DF851482851583A3A3A3A309
:1055C000A3A3A3A3E0A2E050CC851482851583A3F6
:1055D000A3A3A3126421851482851583A3A3601E4F
:1055E0001261EBFA7901851482851583A3A3A3A325
:1055F0001257EF1226328A128B13D20080101257E4
:10560000EFA3A3A3A3E0F512A3E0F513C200E512F4
:105610004513700302558A851282851383A3E065C2
:10562000087004A3E06509600F74FF6508700474D6
:10563000FF6509600302558A851282851383A3A33F
:10564000A3A3A3A3A3122823851282851383A3A354
:10565000A3A3A3A3E0FC7402122C8A126266A90B16
:1056600012371A74021229EEE970388512828513F6
:1056700083A3A3A3A3A3A3A3A3A3A3122823851255
:1056800082851383A3A3A3A3A3A3A3A3A3E0FCAA3C
:1056900016AB17A90A12371A74021229EEE9700321
:1056A00002558AE50A250BC333240AFA7B0012321D
:1056B000E88A0C8B0DAE0CAF0DEA4F7003025570EB
:1056C0008A828B8374D2126A088A828B83A3A31284
:1056D0006D92A3A3A3E50B127A07E50B6033EA24CE
:1056E0000AFAE43FFB8E828F831259B885188285AF
:1056F0001983E0F50CA3E0F50D750E00780C122966
:10570000BCAC0BEC2CFCE433FD1279F01229EE80DA
:105710000D8A828B83A3A3A3A3A3E4F0A3F0E50ADD
:10572000700302554BA80BE828F8E433F9EE28F88B
:10573000EF39F9E8240AFAE439FB8E828F83A3A3B8
:10574000A31259B885160C85170D750E00780C122A
:1057500029BCAC0AEC2CFCE433FD1279F01229EEE2
:1057600002555BE50F60251272161229C475089563
:1057700075091878081229C0E50FF508780812296C
:10578000C4901823122823750800802DE510240BDF
:10579000F582E43511F583E0702A1272161229C4DD
:1057A00075089575091878081229C07508007808D9
:1057B0001229C490182312282378081229C41257DA
:1057C000FC1229EE851882851983126421600985EF
:1057D0001882851983126E51E51645176007AA16BF
:1057E000AB1712339074021229EE7F100226D112E9
:1057F00057F322E0F8A3E0F583888222E510240223
:10580000FCE43511FDE5101261E03511F583E0F996
:105810007A067B8012386474072274F4122454745C
:10582000F4122A9C8A088B09ECFEEDFF740B122CF3
:105830008A7403F0122A5E12348C12637A74031293
:105840002A5E123486E9600A12594E6010E0640143
:10585000600B85188285198374840259158E828F96
:1058600083A3A3A3A3A3A3A3A3E06013F4601012D4
:10587000594E7016EE24141268156003F4700B85EF
:1058800018828519837482025915127589E0642182
:105890007002A3E07055851882851983748C125F9D
:1058A00084E0F50A780A1229C412595F123F18746D
:1058B000011229EEE9705F851882851983E4F012E0
:1058C000366C12594E704F7401122A66EE240BFA90
:1058D000E43FFB123F36E9703D7D007C007900EE2D
:1058E000240BFAE43FFB12381C802BEE24141268C0
:1058F00015F50A780A1229C412595F123F1E740165
:105900001229EEE98518828519837007E4F01236B2
:105910006C80037488F012719CF50A780A1229C40D
:105920007401122A56880A890B780A1229C0E508E0
:10593000240CF582E43509125F7C4480F50B780A6B
:105940001229C012635C1229EE740C0251FEEE247F
:1059500013125957640322F582E43FF583E022EEE7
:10596000240BFCE43FFD8E828F83A3A3A3A3A3A3F8
:10597000A3A3A31271D38E828F83A3A3A3A3A3A3F4
:10598000A3A3E0F922C082C08374F3122A9C851875
:1059900082851983E4F004122C8A1259BD74031213
:1059A0002C8AAA82AB83123ACEAA18AB19123B0AF0
:1059B000740D1229EE026E26A3A3A3A3A3EAF0A3FB
:1059C000EBF02274F6122454EAFEEBFFEA241312E1
:1059D0006815F8A3E0125A0AF8901867E058F5081D
:1059E000A3E059F509E5084509601C78081229C0AB
:1059F000901823122823126812FD7C001264C5122D
:105A0000387074041229EE0252B58882F583125A56
:105A10001222E0FAA3E0F9EA2274EA12245474DBB9
:105A2000122A9C8A148B15751200751300750A00D2
:105A30001260B53515F5831261EBF50EAC18AD1992
:105A40007A007B00799C123C42901AD4E060046496
:105A50000170147A047900123B34EAF50A85188241
:105A6000851983E02A80088518828519837401F0DE
:105A7000E0F8E50EC3984003025C6BE0C3950EF5B9
:105A800009C394044003750903E50975F01AA4FAE3
:105A9000ABF012338A8A128B13EA4B7003025C6EEE
:105AA000750B00AE12AF13850E08025B337C087DC8
:105AB0000079FFEE240AFAE43FFB1232D0850C8213
:105AC000850D83A3A3A3A3E0702D850C82850D8390
:105AD000126421700912739A125D12E48010125C34
:105AE000EFF0901C94E014C0E0125CD6D0E0F0120D
:105AF0005CDA125D218032901C94E004C0E0125CFC
:105B0000D6D0E0125D4EC39403EE4003025BB412A4
:105B100074937402125D4E64017003025BC1EE2443
:105B200015125CF2125D037401F0EE241AFE5001AE
:105B30000F050BE50BC395094003025C20E508C384
:105B4000950A4003025BCAAA087B00123B768A0CC6
:105B50008B0D0508901C81125D34850C82850D83A8
:105B6000125CFBF0A3E9125D26125CD674FF125D95
:105B700053A3A3A3A3A3A3E0C0E0125CC4D0E0F0AE
:105B80007401122C8AE4F0850C82850D83125F6704
:105B90007402122C8AE81273EF7401122A5E123A10
:105BA000F8E964016003025AAD7404122C8A125C95
:105BB000E0025ABD125CF0125D4E64036003025BAA
:105BC0001EEE241512739D025B24E50AC3950E4058
:105BD000057508008051E50EC3950AF5088048EE6A
:105BE000241512739D125D21F0901C94E014C0E006
:105BF000125CD6D0E0125D26741D122C8AE0C0E043
:105C0000125CC4D0E0F0125CCE12641F70051273F7
:105C10009A8003125CEFF0EE241AFE50010F050B80
:105C2000E50BC395095047740E122A66AA087B003B
:105C30007987123C4205087418122C8A125D34745C
:105C400010122C8A125CE0740E122C8A125CFB1269
:105C500073EF901AD4E0600464017083125CDA126E
:105C60005D037403125D1274FF808A750900750A62
:105C700000780A1229C478121229C078091229C49E
:105C8000E50EF50978091229C47405122C8AE0FD85
:105C90007C00E5141261D73515FBE5141261DC3583
:105CA00015F583E0F91238AC74051229EEE51245BA
:105CB000136007AA12AB1312339074251229EE7FDA
:105CC0000E0226D1EE2419F582E43FF58322EE245C
:105CD00012F582E43F22125D172212741A74022216
:105CE000AC82AD83EE240AFAE43FFB12348C22EE40
:105CF0002414F582E43FF5837401221273FC1274BC
:105D000010E822125D0722F0EE2416F582E43FF53A
:105D10008322F0125D1722EE2418F582E43FF5830A
:105D200022125D07E422F0EE2417F582E43FF583AA
:105D30007402F0221273FC8E828F83E8F0A3E9F0E4
:105D40007C957D1CEE1261D73FFB12348C22125DD4
:105D500053E022F0850C82850D83A3A3A3A32274B4
:105D6000F612245474F9122A9C125DD2127AB98563
:105D70001882851983122C738E828F83A3A3A3A309
:105D8000E0C0E07404122C8AD0E012782EF874057A
:105D9000122C8A7401F07406122C8A7401F0901887
:105DA0002DF0901836041274AFFAA3E0FB90182E71
:105DB0001259BDE8901837F0127851E090182CF085
:105DC000AA18AB19123BDCE96003123BE27407022C
:105DD00052B28A088B091277C735092274F212244D
:105DE0005474FF122A9C7508007E007F0012412225
:105DF0008A0A8B0B125F4E80050508125F64E84922
:105E000070F7901AD4E0600764016003025EC41268
:105E10005F4E8003125F64E849602D888289831297
:105E20006266901C81E06A7003A3E06B600A125FF7
:105E30006B126266EA4B70DC88828983125F75E0C0
:105E4000687003A3E069607C7A167B001277AA6011
:105E500073901C81125F678A828B83E81273EF90C4
:105E60001C76126A9FF0124290E98E828F83A3A360
:105E7000A3A3A3F0901EB0E08E828F83A3A3A3A35D
:105E8000A3A3F07C957D1CEE240B125CE7AA18AB53
:105E9000197941125F5AE06008901823125F6780F9
:105EA0000478FE79FF8E828F83A3A3A3A3A3A3A369
:105EB000E8F0A3E9125F84E50AF0A3E50BF08E0A8F
:105EC0008F0B0508901837E0F8E508C3985004795F
:105ED000008029E508C398F9C39406400279057843
:105EE00000800FE50A2414F582E4350B125F7CF57F
:105EF0000B08901837E0FAE8C39A40E77509007874
:105F0000091229C4780A1229C0E9F5097809122969
:105F1000C4901837E0F50978091229C4AD087C004F
:105F20007A2E7B1890182CE0F91238A674051229E5
:105F3000EE901AD4E060046401700BEE4F6007EE3F
:105F4000FAEFFB123390123BE274010278831241A4
:105F5000228A0C8B0DA80CA90D221239AE8518824D
:105F600085198322125F6B1273FC22E82414F582D8
:105F7000E439F583221273FC901C8122F583E0F54D
:105F80000AA3E022F0EE1274972274F012245474E3
:105F9000FF122A9C8A0A8B0B7E008E0E8E0F1260D7
:105FA000B5350BF5831261EBFFAC18AD197A007BA8
:105FB00000799D123C42851882851983E0F8EFC371
:105FC00098400302605FE0C39FFEC3940B40027ED3
:105FD0000AEE75F007A4FAABF01261CF8A0E8B0FB0
:105FE000EA4B6079750C00801A850882850983A3C5
:105FF000A3A3A3A37403F0E5082407F50850020542
:1060000009050CE50CC39E5056AC08AD09E50C2FF4
:10601000FAE43400FB798B123C42850882850983BF
:10602000A3A3A3A3A3E014600814601314601F804B
:10603000B8850882850983A3A3A3A3A3E480B785B9
:106040000882850983A3A3A3A3A3740180A885085C
:1060500082850983A3A3A3A3A3740280997E0075FC
:10606000080078081229C4780E1229C0EEF50878C5
:10607000081229C4EFF50878081229C47405122CF7
:106080008AE0FD7C00E50A1261D7350BFBE50A12B8
:1060900061DC350BF583E0F91238B274051229EE94
:1060A000E50E450F6007AA0EAB0F12339074011274
:1060B00029EE02519CEA1277C82274EE122454741D
:1060C000FE122A9C8A0C8B0D75100075110012604F
:1060D000B5350DF5831261EBF50AAC18AD197A00F0
:1060E0007B0079A3123F24851882851983125F678C
:1060F000C3E50A98E4995020851882851983A80A77
:10610000E0C398FEA3E09400FFC3EE9404EF940074
:1061100040617E037F00805F7E00750B00EEF975A5
:10612000080078081229C478101229C0E9F5087807
:10613000081229C4E50AF50878081229C474051262
:106140002C8AE0FDAC0BE50C1261D7350DFBE50C9C
:106150001261DC350DF583E0F91238B874051229A7
:10616000EEE51045116007AA10AB111233907402CE
:106170000278B4EE4F60A3EEFAEFFBEA75F015A4D7
:10618000FAA8F075F015EBA4281261CE8A108B11D5
:10619000EA4B6032750B00750E00C3E50E9EE49F5E
:1061A000400302611DAC08AD09A80AE50E28FAE417
:1061B0003400FB79A2123F24E5082415F5085002AB
:1061C0000509050E80D4750BB5790002611FFB121D
:1061D000338A8A088B09222402FAE4221261E0221F
:1061E000240FF582E4221257F5A3A31257F3E022FD
:1061F00074F612245474FF122A9CEAFEEBFF126418
:106200000D1262668A82F583A3A3A3A3A3A3A3A30B
:10621000E0F9123C00E9851882851983F0750800C1
:1062200078081229C47401122A5688088909780846
:106230001229C075083575098078081229C01262C4
:10624000491229EE74010252B27901126255FAE440
:106250003F12637322EE2402FCE43FFDEE240F2282
:106260008518828519831271D32274F41224547410
:10627000FA122A9C125DD2126386EEFAEFFB123AF2
:10628000D4E9600F12637AEEFAEFFB123486E96408
:10629000017013901AD4E070030263577401122C3A
:1062A0008AE4F0A380097401122C8AEEF0A3EFF0C7
:1062B000901AD4E064027017850882850983A3A32D
:1062C000126828E0687003A3E06960030263578ED8
:1062D000828F83A3A3A3A3A3A3A3A3E0FEA2E6505C
:1062E000087403122C8A7401F0EEA2E750087404BB
:1062F000122C8A7401F07405122C8AE4126619F0CB
:10630000F50A780A1229C47401122A56880A890BE0
:10631000780A1229C0750A34750B80780A1229C0D0
:1063200012635C1229EE908151122C5B12422A7A80
:10633000007B001242367A007B0012423074011258
:106340002A5E123C30EEA2E7400D7401122C8A1234
:10635000642170031247EE74060251FE7901E508CC
:106360002402FCE43509FDE508240FFAE43509129E
:10637000637322FB1238107405221242068A0A8BBC
:106380000BAC0AAD0B22F583127738FF2274F6129C
:10639000245474FF122A9CEAFEEBFF901AD4E0709A
:1063A00011901EB4E0700B8A828B83A3A312642128
:1063B000705812640D1261EBF50874FF65087003E4
:1063C0007508FEA908123BEEE9851882851983F04D
:1063D000123FD8E96005A908123924EE240B12688F
:1063E00015702775080078081229C47401122A56FE
:1063F0008808890978081229C075083675098078D7
:10640000081229C01262491229EE026244EA12649B
:1064100012222413F582E43FF58322F582E438F555
:10642000831273FCE849220229A074F412245474E4
:10643000EF122A9CEAFEEBFF1264DAF508E439F564
:1064400009901823E06A7003A3E0697052A818A9A4
:1064500019880A890B780A1229C0750A11750B0070
:10646000780A1229C07C007D007A817B00123414E6
:1064700074041229EEE97027750A00780A1229C4FB
:106480007401122A56880A890B780A1229C0AC08AE
:10649000AD091264C512386A74031229EE802175A1
:1064A0000A11750B80780A1229C078081229C012C7
:1064B0006812FD7C841264C512387674041229EEC9
:1064C00074110251FE1264C922EE2402FAE43FFB69
:1064D000EE1261E03FF583E0F9221264DE22EA1257
:1064E0006412126DAE8882F5831264ED22E0FAA385
:1064F000E0F8E4C8F9EA282274F112245474EB128B
:106500002A9CEAFEEBFF1260B53F126612FAE4CA5B
:10651000FBEC2AF508901823E06C7003A3E06B6095
:10652000030265BE88828983A3A3E09410500F887C
:10653000828983A3A3E08518828519838008851842
:10654000828519837410F0E0C0E07404122C8AD0A4
:10655000E01276D9A982AA83890C8A0D750E00787B
:106560000C1229BC7407122C8AE0FC7D00740812FE
:106570002C8AAA82AB831279F01229EE7404122AB3
:1065800056880A890B780A1229C0750A11750B0002
:10659000780A1229C07C007D007A817B0012340EBB
:1065A00074041229EE7404122C8AE090185F6005BE
:1065B000E0D2E48003E0C2E4126619E480088518A2
:1065C000828519837484F0E0C0E07401122C8AD0B3
:1065D000E0F07402122C8AE508F07403122C8AE5AC
:1065E00008F012785B3F12721F1229C47402122A3B
:1065F000568808890978081229C075081475098019
:1066000078081229C0790312624B1229EE74150220
:1066100077DB12773DFCA3E022F085188285198391
:106620002274F612245474E0122A9CEAFEEBFF90C6
:106630001C83E064086008E06404600302680DAC39
:1066400018AD191237F8901AD4E06402702712427C
:10665000067402122C8AAC82AD83123486E960156E
:1066600012681C851882851983E0687003A3E069AD
:10667000700302680D1243DA7402122C8AAC82ADE8
:10668000831262601242D8E96401700302680D74DB
:1066900018122A5E1242187402122C8AAC82AD8340
:1066A0007418122A5E123486E960301242128A0887
:1066B0008B09A808A909851882851983E0687003E9
:1066C000A3E0696016851882851983126828E8128C
:1066D00073EF7A777B1C794B1239B4901AD4E0604F
:1066E000046401706712681CEE241112681568704A
:1066F00003A3E06960567402122C8AAA82AB83124B
:106700003B5E8B09A909EA4960268A828B83A3A391
:10671000A3A3E06401600D8A828B83A3A3A3A3E0FB
:106720006402700C7402122C8AAA82AB83123B6A38
